:100000000C9472000C9493000C9493000C94930045
:100010000C9493000C9493000C9493000C94930014
:100020000C9493000C9493000C9493000C94930004
:100030000C9493000C9493000C9493000C949300F4
:100040000C9493000C9493000C9493000C949300E4
:100050000C9493000C94E40D0C9493000C94930076
:100060000C9493000C9495000C94CE000C94930087
:100070000C9493000C9493000C9493000C949300B4
:100080000C9493000C9493000C9493000C949300A4
:100090000C9493000C9493000C9493000C94930094
:1000A0000C9493000C9493000C9493000C94930084
:1000B0000C9493000C9493000C9493000C94930074
:1000C0000C9493000C9493000C9493000C94930064
:1000D0000C9493000C9493000C9493000C94930054
:1000E0000C94930011241FBECFEFD1E2DEBFCDBF31
:1000F00000E00CBF12E0A0E0B2E0E6E2F8E200E0CF
:100100000BBF02C007900D92AA33B107D9F723E0C5
:10011000AAE3B2E001C01D92A535B207E1F70E9443
:10012000B8110C9411140C9400001F920F920FB68A
:100130000F9211240BB60F922F933F934F935F931F
:100140008F939F93EF93FF932091C0003091C6004F
:10015000287180913C0290E001968F779927409119
:100160003B0250E08417950739F080933C02FC0174
:10017000E15CFD4F308301C022E020933A02FF9101
:10018000EF919F918F915F914F913F912F910F90A0
:100190000BBE0F900FBE0F901F9018951F920F92DD
:1001A0000FB60F9211240BB60F928F939F93EF937C
:1001B000FF9390913E0280913D02981779F08091D3
:1001C0003D0290E001968F77992780933D02FC01D4
:1001D000E154FD4F80818093C60005C08091C1002D
:1001E0008F7D8093C100FF91EF919F918F910F9030
:1001F0000BBE0F900FBE0F901F901895F8941092A1
:100200003E0210923D0210923C0210923B02789402
:1002100097FF04C022E02093C0009F779093C50011
:100220008093C40088E98093C10086E08093C20077
:100230000895F89490913C0280913B02981304C079
:10024000789480E091E00895789480913B0290E06A
:1002500001968F77992780933B02FC01E15CFD4F6B
:10026000208180913A0290E0982F8827820F911D7B
:100270000895F89490913C0280913B02981304C039
:10028000789480E091E008957894E0913B02F0E06A
:100290003196EF77FF27E15CFD4F208180913A0294
:1002A00090E0982F8827820F911D089520913E029B
:1002B00030E02F5F3F4F2F77332740913D0250E0D2
:1002C00024173507D1F3F901E154FD4F80832093C2
:1002D0003E028091C10080628093C1000895CF9357
:1002E000DF93EC018991882319F00E945601FACF1F
:1002F000DF91CF910895CF93DF93FC018491EF01BB
:100300002196882321F00E945601FE01F7CFDF914C
:10031000CF910895F89480913C0220913B0278940B
:1003200090E080589F4F821B91098F7799270895FD
:10033000F89480913B0280933C0278940895E1E028
:10034000F1E08081846080833C9AE2E0F1E080818A
:100350008B7F808344980895E1E0F1E080818B7F7A
:10036000808308953C98089582B1807F82B9089572
:1003700082B1836082B92FE789EA93E021508040FF
:100380009040E1F700C000000E94B4012FEF85EA21
:100390009EE0215080409040E1F700C0000080E0E6
:1003A0000E942A10811110C082B18C6082B98FE343
:1003B0009FE10197F1F700C000000E94B4018FE1B6
:1003C0009EE40197F1F7E9CF8830A8F0139A8FE304
:1003D0009FE10197F1F700C000000E94B4018FE196
:1003E0009EE40197F1F700C0000080E00E942A100F
:1003F0008F3F61F70895129A8FE39FE10197F1F71C
:1004000000C000000E94B4018FE19EE40197F1F763
:1004100000C0000080E00E942A108F3F61F708951D
:10042000CF9380913F0390914003019690934003B6
:1004300080933F0386E090E00E945305C0E0CF5FC9
:1004400082B1836082B98FEF99EF0197F1F700C015
:10045000000011988FE39FE10197F1F700C00000C1
:100460000E94B40180E00E942A10882391F1C431D7
:1004700080F182B1836082B99FEF26E781E09150DD
:1004800020408040E1F700C000000E94B40180E0FD
:100490000E942A10803C09F47FC0883309F47CC094
:1004A0008C3109F479C0823009F476C0982F9F7B93
:1004B000903209F471C0982F9F7D903109F46CC07F
:1004C000982F9F7E983009F467C0877F843051F45D
:1004D00063C080E090E00E947506C39708F0AFCF3C
:1004E00081E05BC09FEF23ED80E39150204080408E
:1004F000E1F700C0000080E00E942A1020913F0335
:10050000309140032E3031050CF047C0811115C0E9
:1005100082B18C6082B98FE39FE10197F1F700C04F
:1005200000000E94B4018FE19EE40197F1F700C042
:10053000000080E00E942A10E9CF80E00E942A108B
:100540008830A8F0139A8FE39FE10197F1F700C07C
:1005500000000E94B4018FE19EE40197F1F700C012
:10056000000080E00E942A108F3F61F7CECF129AE0
:100570008FE39FE10197F1F700C000000E94B401F2
:100580008FE19EE40197F1F700C0000080E00E9437
:100590002A108F3F61F7B9CF80E0CF910895CF93B4
:1005A000DF93882361F02FEF83ED90E321508040AB
:1005B0009040E1F700C00000C4E1D0E016C0C8E000
:1005C000D0E082B18C6082B98FE19EE40197F1F7AF
:1005D00000C000000E94B4018FE39CE90197F1F78D
:1005E00000C00000219769F7DECF82B1896082B92F
:1005F0008FE39CE90197F1F700C000000E94B4016D
:100600009FEF29EF80E0915020408040E1F700C04B
:100610000000219751F79FEF23ED80E39150204098
:100620008040E1F700C00000DF91CF910C94B80149
:10063000CF93DF93882361F02FEF83ED90E3215078
:1006400080409040E1F700C00000C4E1D0E016C057
:10065000C8E0D0E082B18C6082B98FE19EE401975E
:10066000F1F700C000000E94B4018FE39CE90197FC
:10067000F1F700C00000219769F7DECF82B18660F4
:1006800082B98FE39CE90197F1F700C000000E9456
:10069000B4019FEF29EF80E0915020408040E1F7C6
:1006A00000C00000219751F79FEF23ED80E39150A8
:1006B00020408040E1F700C00000DF91CF910C9412
:1006C000B801CF93DF93C0E0D0E080E00E942A1011
:1006D000883191F482B1836082B98FE19EE4019701
:1006E000F1F700C000000E94B4018FEF9CE7019772
:1006F000F1F700C0000041C08F3FF1F49FEF23ED00
:1007000030E3915020403040E1F700C00000119AE2
:100710008FED9EE20197F1F700C000000E94B40146
:100720008FE19EE40197F1F700C0000080E00E9495
:100730002A1084FFECCF38C08F31D9F08F30C9F048
:100740008730B9F08E31A9F08F3309F472C08F373A
:1007500009F46FC0803348F0119A8FE19EE401974D
:10076000F1F700C00000109A10C0813208F0ADCF40
:1007700004C02197E1F0C0E0D0E0109A8FE19EE440
:100780000197F1F700C00000119A8FE19EE40197F4
:10079000F1F700C000000E94B4018FE39CE90197CB
:1007A000F1F700C0000091CF8F3109F047C09FEFF3
:1007B00023ED30E3915020403040E1F700C00000CD
:1007C000109A8FE79EE30197F1F700C000000E94A6
:1007D000B4018FE19EE40197F1F700C0000080E0D2
:1007E0000E942A10803861F79FEF23ED30E391508B
:1007F00020403040E1F700C00000887129F5139ACD
:100800008FE39FE10197F1F700C00000109A8FE39A
:100810009FE10197F1F700C000000E94B4018FEF43
:100820009CE70197F1F700C0000080E00E942A10C9
:10083000E4CFC130D10509F08FCFB9CF8E3109F4A3
:10084000B6CFC1E0D0E080CFDF91CF9108950E9474
:100850001901911102C0811108958FEF08950F932E
:100860001F930097C9F0AC014150510960E070E05E
:1008700080E090E08A019B010027012B022B032BD3
:1008800031F076956795579547950196F3CF982F58
:100890008827842B952B02C080E090E01F910F9158
:1008A0000895CF93DF93D82FC62F809100020E9426
:1008B0002E0E8D2F0E94810E8C2F0E94810EDF91B3
:1008C000CF910C94790E1F93CF93DF93182FEB01E8
:1008D000809100020E942E0E812F0E94810E8D2F8A
:1008E0000E94810E8C2F0E94810EDF91CF911F916B
:1008F0000C94790EFF920F931F93CF93DF93F82EF2
:10090000EA01162F072F809100020E942E0E8F2DD4
:100910000E94810E802F0E94810E812F0E94810EE5
:100920008D2F0E94810E8C2F0E94810EDF91CF911E
:100930001F910F91FF900C94790ECF93C82F809147
:1009400000020E942E0E8C2F0E94810E80910002C8
:1009500081600E94770E0E949C0EC82F0E94790E23
:100960008C2FCF910895CF93DF93C82F80910002F1
:100970000E942E0E8C2F0E94810E809100028160B9
:100980000E94770E0E94920EC82FD0E0DC2FCC2759
:100990000E949C0EC82B0E94790ECE01DF91CF9150
:1009A0000895CF92DF92EF92FF92CF93C82F80915C
:1009B00000020E942E0E8C2F0E94810E8091000258
:1009C00081600E94770E0E94920EC82ED12CE12CDD
:1009D000F12CFC2CEE24DD24CC240E94920EE82A7B
:1009E0000E94920EC82F0E949C0EC82ADC2A0E94E8
:1009F000790EC701B601CF91FF90EF90DF90CF90B5
:100A00000895FF920F931F93CF93DF93182FF62E25
:100A1000D72FC42F809100020E942E0E812F0E949A
:100A2000810E0F2D1D2FCC2339F0F80181918F01FC
:100A30000E94810EC150F7CFDF91CF911F910F918E
:100A4000FF900C94790EFF920F931F93CF93DF9337
:100A5000C82FF62E072F142F809100020E942E0E11
:100A60008C2F0E94810E8091000281600E94770E7F
:100A7000CF2DD02F112359F0123018F00E94920E72
:100A800002C00E949C0E888311502196F3CFDF9103
:100A9000CF911F910F91FF900C94790E682F66955E
:100AA0008AE80C945104809300020895809100021A
:100AB0000895CF92DF92EF92FF926B017C0120E0CC
:100AC00030E0A9010E94AB1287FD19C028EB3EEF70
:100AD0004FEF53E4C701B6010E94691318167CF06A
:100AE00020E030E040E053E4C701B6010E946E13FD
:100AF0000E94B01284E40E94630481E001C080E09F
:100B0000FF90EF90DF90CF90089584E40E94B304AB
:100B1000BC0180E090E00E94DF1220E030E040E085
:100B20005CE30E946E130895009711F480E503C002
:100B3000019731F480E70E949D048F5F880F08952C
:100B40008FEF0895CF92DF92EF92FF926B017C01BD
:100B500061E080E80E94510461E08FEF0E9451043F
:100B600060E080E00E9451046091500381E90E949E
:100B7000510461E080E00E94510460E08FEF0E9428
:100B8000510460E080E80E945104C114D104E104E2
:100B9000F10499F088EF0E94B304009739F0DC016A
:100BA000A70196010E9489126B017C01B701A60181
:100BB00084E00E947A0464E001C062E080E0FF907B
:100BC000EF90DF90CF900C94510461E080E00E94A0
:100BD000510461E08FEF0E94510460E080E00E94C8
:100BE000510460E081E90E94510461E080E00E94CC
:100BF000510460E08FEF0C945104EF92FF920F9339
:100C00001F93CF93DF93CDB7DEB72C970FB6F89431
:100C1000DEBF0FBECDBF7C010E94D80D70934F0385
:100C200060934E0383E10E949D048770D9F4809104
:100C3000420390914303892BA9F30E94D80D209180
:100C40004E0330914F03621B730B809142039091CE
:100C500043038617970730F781E0809341038FEFB6
:100C60009FEF36C0E114F10429F48EE10E94B30431
:100C70008C0129C04CE0BE016F5F7F4F84E10E9470
:100C800023058981869586958695F70180878B81D6
:100C90009C81982789279827978386838F819885B9
:100CA0009827892798279383828389859A8598270F
:100CB00089279827958384830B851C851027012716
:100CC00010271183008361E08BE00E945104C8016A
:100CD0002C960FB6F894DEBF0FBECDBFDF91CF913B
:100CE0001F910F91FF90EF900895CF93DF93EC0148
:100CF00061E080E80E94510461E08FEF0E9451049E
:100D000060E080E00E9451046091500381E90E94FC
:100D1000510461E080E00E94510460E08FEF0E9486
:100D2000510460E080E80E94510461E080E00E948C
:100D300051040E94D80D70934F0360934E0380E0DE
:100D40000E949D0480FF1DC0809142039091430347
:100D5000892BA9F30E94D80D20914E0330914F03A7
:100D6000621B730B80914203909143038617970790
:100D700030F781E0809341038FEF9FEFDF91CF91B8
:100D80000895CE01DF91CF910C94FD058091410330
:100D90001092410308959093430380934203089572
:100DA00080914203909143030895EF92FF920F9335
:100DB0001F93CF937C018B0161E080E80E94510476
:100DC00061E08FEF0E94510460E080E00E945104D6
:100DD00066E08FEF0E94510483E80E949D04682F13
:100DE000646083E80E94510467E08FEF0E94510421
:100DF00061E081E80E94510461E080E80E945104B2
:100E00006BE684E90E94510460E083E80E9451048B
:100E10000E94D80D70934F0360934E0383E80E94A5
:100E20009D04C82F811116C0809142039091430305
:100E3000892BA1F30E94D80D20914E0330914F03CE
:100E4000621B730B809142039091430386179707AF
:100E500028F731C061E083E80E94510482E90E94D2
:100E60009D04982F9F77F7019083881F8827881FFC
:100E7000F801808360E081E80E94510466E08FEF12
:100E80000E94510483E80E949D04682F6B7F83E8D1
:100E90000E94510461E08FEF0E94510461E080E004
:100EA0000E94510460E08FEF0E94510460E080E8EE
:100EB0000E945104C1E08C2FCF911F910F91FF90A0
:100EC000EF900895CF93DF93EC0181E00E949D04A1
:100ED00084FB992790F9988383FB992790F99A834B
:100EE00082FB992790F9998386FB992790F99B8338
:100EF000881F8827881F8C83DF91CF9108952F92B8
:100F00003F924F925F926F927F928F929F92AF9299
:100F1000BF92CF92DF92EF92FF920F931F93CF93E6
:100F2000DF9300D000D0CDB7DEB71C017E836D8388
:100F300080E090E00E94940590E0ED81FE81918335
:100F4000808386E40E949D04682E712CFFEF6F1A47
:100F50007F0AED81FE8175826482A081B0E020E08D
:100F60003FE24AE350E00E9489124B015C01F4EF3A
:100F70008F0EF1E09F1EA11CB11C98EEC92E93E0CC
:100F8000D92EE12CF12CC501B401A70196010E94D4
:100F90006712D3010E94941269837A838B839C83A6
:100FA00020ED422E27E0522E612C712CC501B40198
:100FB000A30192010E94671269817A818B819C81D1
:100FC000620F731F841F951FA70196010E9467126D
:100FD000ED81FE81228733874487558781E50E9412
:100FE000B3048C01112702C0000F111F9A95E2F77C
:100FF0000F5F1F4FED81FE8117830683A081B0E054
:1010000020E03FE24AE350E00E9489124B015C017C
:10101000F4EF8F0EF1E09F1EA11CB11CC501B401BD
:10102000A70196010E946712D8010E948912698364
:101030007A838B839C83C501B401A30192010E9432
:10104000671269817A818B819C81620F731F841F73
:10105000951FA70196010E946712ED81FE812687E8
:101060003787408B518B80E70E949D048F5F880FEC
:1010700090E0ED81FE819383828381E70E94B30437
:101080009C01992702C0880F991F3A95E2F70196B3
:10109000ED81FE8191878087F1012381222341F038
:1010A000ED81FE8126813781821B930B918780879A
:1010B000ED81FE81A281B0E020E03FE24AE350E012
:1010C0000E9489126B017C01F4EFCF0EF1E0DF1E6C
:1010D000E11CF11C88EE882E83E0982EA12CB12C07
:1010E000C701B601A50194010E946712ED81FE813E
:1010F000A085B1850E9489122B013C01C701B60170
:1011000020ED37E040E050E00E946712C301B201D9
:10111000620F731F841F951FA50194010E9467121F
:10112000ED81FE81228B338B448B558B26960FB637
:10113000F894DEBF0FBECDBFDF91CF911F910F910D
:10114000FF90EF90DF90CF90BF90AF909F908F90E7
:101150007F906F905F904F903F902F9008954F92A7
:101160005F926F927F928F929F92AF92BF92CF9237
:10117000DF92EF92FF921F93CF93DF93CDB7DEB74D
:101180006B970FB6F894DEBF0FBECDBF60322EE472
:1011900072078105910508F4A8C06B017C01CE019E
:1011A00047960E946207BE016F5F7F4FCE01479650
:1011B0000E947F078F89882349F08B859C85AD85A8
:1011C000BE858A5C944FAF4FBF4F04C088EE98E055
:1011D000A0E0B0E0298D222369F04B855C856D8508
:1011E0007E854E545D4F6F4F7F4F440F551F661FD6
:1011F000771F0BC0288D222361F04B855C856D85A0
:101200007E854C565D4F6F4F7F4F840F951FA61FF5
:10121000B71F1A8D112361F04F85588969897A8922
:101220004C565D4F6F4F7F4F840F951FA61FB71F02
:101230002B8D222309F457C02C013D0126E2420EDA
:1012400022E0521E611C711CC414D504E604F7048C
:1012500008F44BC0AB81B0E020E03FE24AE350E04D
:101260000E9489124B015C0124EF820E21E0921E44
:10127000A11CB11CA701960124193509460957097B
:10128000A8EEB3E00E9489122B013C01C501B40114
:1012900020ED37E040E050E00E946712420E531EFE
:1012A000641E751EC501B40128EE33E040E050E035
:1012B0000E946712C301B2010E946712C901112383
:1012C00021F08F819885820F931F0E942F04BC010B
:1012D00081E70E946304C0925103D0925203E092CE
:1012E0005303F092540381E001C080E06B960FB687
:1012F000F894DEBF0FBECDBFDF91CF911F91FF905D
:10130000EF90DF90CF90BF90AF909F908F907F90A5
:101310006F905F904F9008950F931F93CF93DF933B
:10132000CDB7DEB76B970FB6F894DEBF0FBECDBF5B
:10133000CE0147960E946207BE016F5F7F4FCE01CC
:1013400047960E947F078F89882359F08B859C855B
:10135000AD85BE85BC01CD016C57724F8F4F9F4F3D
:1013600004C066E37BE080E090E0298D222369F0F1
:101370000B851C852D853E850E541D4F2F4F3F4FED
:10138000000F111F221F331F0BC0288D222361F075
:101390000B851C852D853E850C561D4F2F4F3F4FCD
:1013A000600F711F821F931F2A8D222361F00F850A
:1013B000188929893A890C561D4F2F4F3F4F600FCE
:1013C000711F821F931F2B8D222361F00B891C89B3
:1013D0002D893E890A5D1D4F2F4F3F4F600F711FB2
:1013E000821F931F609351037093520380935303A2
:1013F000909354036B960FB6F894DEBF0FBECDBF2B
:10140000DF91CF911F910F910895CF93682F616065
:1014100080E00E9451040E94D80D70934F036093A6
:101420004E0383E10E949D04C82FC770B1F48091E0
:10143000420390914303892BA1F30E94D80D209180
:101440004E0330914F03621B730B809142039091C6
:1014500043038617970728F709C061E08BE00E94D5
:10146000510460E080E00E945104C1E08C2FCF91D4
:101470000895CF93DF93CDB7DEB728970FB6F894D2
:10148000DEBF0FBECDBF882341F089E80E949D04D6
:10149000682F616089E80E94510460E088E80E943A
:1014A000510461E080E80E94510461E08FEF0E94E6
:1014B000510460E080E00E94510481E90E949D0493
:1014C0008093500361E080E00E94510460E08FEF60
:1014D0000E94510460E080E80E94510480E60E946E
:1014E0009D04682F626180E60E94510460E270E012
:1014F00084E40E9463046FEF81E00E945104BE0106
:10150000695F7F4FCE0108960E94D506811102C007
:1015100080E0D4C146E0BE016F5F7F4F80EB0E9448
:10152000230561E08FEF0E94510460E08FE40E9488
:1015300051046CE28EE40E94510460E08FEF0E943F
:10154000510464EB86EB0E9451048F81811102C02B
:1015500040E001C04CE0A88580E090E061E070E0F0
:10156000282F269526952695582F5770E1E0F0E014
:10157000EC0FFD1FE20FF11D841710F0A9130AC034
:101580009B0101C0220F5A95EAF720953081232351
:10159000208309C0208130E002C0359527955A95F7
:1015A000E2F720FD9F5F8F5F8033D1F646E0BE01FA
:1015B0006F5F7F4F80EB0E94010561E08FEF0E941B
:1015C000510460E080E00E94510460E08FEF0E94CF
:1015D000510460E089E00E94510460E080E10E94D3
:1015E000510460E081E10E94510461E084E20E94C4
:1015F00051046FEF85E20E94510460E085E70E948C
:10160000510461E08FEF0E9451046CE28EE40E946D
:10161000510460E088E40E94510460E280E30E948B
:10162000510460E08FEF0E94510469E080E30E9462
:10163000510460E084E50E94510464E081E30E946B
:10164000510463E082E30E94510463E880E40E9455
:10165000510465E286E40E94510460E080E60E9445
:10166000510460E087E20E94510466E080E50E9438
:10167000510460E081E50E94510466E982E50E9420
:10168000510468E086E50E94510460E387E50E940A
:10169000510460E081E60E94510460E082E60E940D
:1016A000510460E084E60E94510460E085E60E94F7
:1016B000510460EA86E60E94510461E08FEF0E94C7
:1016C000510462E382E20E94510464E187E40E94D3
:1016D00051046FEF89E40E94510460E08AE40E94A3
:1016E000510460E08FEF0E9451046AE08AE70E9493
:1016F000510460E08BE70E94510461E288E70E9498
:10170000510461E08FEF0E94510464E383E20E9480
:10171000510460E082E40E9451046FEF84E40E946F
:10172000510466E285E40E94510465E086E40E946B
:10173000510460E480E40E94510466E08EE00E945F
:1017400051046AE180E20E94510460E483E40E9453
:10175000510460E08FEF0E94510463E084E30E9433
:10176000510464E485E30E94510461E08FEF0E941C
:10177000510464E081E30E94510469E08BE40E941B
:10178000510465E08CE40E94510464E08DE40E9401
:10179000510460E08FEF0E94510460E084E40E94F5
:1017A000510460E285E40E94510468E087E40E94ED
:1017B000510468E288E40E94510460E087E60E94D8
:1017C000510464E080E70E94510461E081E70E94D7
:1017D00051046EEF82E70E94510460E086E70E94A8
:1017E000510460E087E70E94510461E08FEF0E949E
:1017F000510461E08DE00E94510460E08FEF0E948F
:10180000510461E080E80E94510468EF81E00E9489
:10181000510461E08FEF0E94510461E08EE80E9464
:10182000510461E080E00E94510460E08FEF0E946B
:10183000510460E080E80E94510464E08AE00E9464
:10184000510484E80E949D04682F6F7E84E80E9402
:10185000510461E08BE00E9451040E948C09609366
:10186000510370935203809353039093540368EE93
:1018700081E00E9451046091510370915203809164
:101880005303909154030E94AF0861E081E00E94ED
:10189000510480E40E94050A882309F439CE62E0ED
:1018A00081E00E94510480E00E94050A882309F427
:1018B0002FCE68EE81E00E94510481E028960FB699
:1018C000F894DEBF0FBECDBFDF91CF9108958F9208
:1018D0009F92AF92BF92CF92DF92EF92FF921F93AF
:1018E000CF93DF93CDB7DEB76B970FB6F894DEBF1B
:1018F0000FBECDBF6C01162FF62EF694FA94CE01D2
:1019000047960E946207BE016F5F7F4FCE014796E8
:101910000E947F07C114D10409F072C01E3069F023
:1019200028F41C3009F028C168E10AC0103139F0F0
:10193000123109F021C160E503C060E301C060E439
:1019400087E50E94510468E086E50E9451046F2DEE
:1019500080E50E945104A12FB0E020E03FE24AE37D
:1019600050E00E9489126B017C0124EFC20E21E03D
:10197000D21EE11CF11CC701B60128EE33E040E0A5
:1019800050E00E94671249015A01C701B60120EDDB
:1019900037E040E050E00E94671269017A012F852C
:1019A000388949895A89A8EEB3E00E9489126C0DE2
:1019B0007D1D8E1D9F1DA50194010E946712C90106
:1019C0000E942F04BC0181E50E9463042B853C85A5
:1019D0004D855E85A8EEB3E00E9489126C0D7D1DD9
:1019E0008E1D9F1DA50194010E9467126FEF21308B
:1019F00081E0380708F4620F86E40E945104A1C018
:101A0000CA94CD2809F0B8C01A3069F1C8F418306A
:101A100009F0B2C060E188E40E94510468E087E404
:101A20000E94510462E082E30E9451046CE080E372
:101A30000E94510461E08FEF0E94510460E336C0C0
:101A40001C30F9F01E3009F097C068E488E40E9469
:101A5000510468E087E40E94510463E082E30E943D
:101A6000510467E01BC068E288E40E94510468E00A
:101A700087E40E94510463E082E30E94510469E01C
:101A80000DC068E388E40E94510468E087E40E9486
:101A9000510463E082E30E94510468E080E30E9405
:101AA000510461E08FEF0E94510460E280E30E94E4
:101AB000510460E08FEF0E9451046F2D80E70E9477
:101AC0005104A12FB0E020E03FE24AE350E00E9441
:101AD00089126B017C0124EFC20E21E0D21EE11CB1
:101AE000F11C2B893C894D895E89A8EEB3E00E94E8
:101AF00089124B015C01C701B60120ED37E040E0DF
:101B000050E00E946712820E931EA41EB51EC701EC
:101B1000B60128EE33E040E050E00E946712C501B4
:101B2000B4010E946712C9016A8D662321F08F817A
:101B30009885820F931F0E942F04BC0181E70E94A9
:101B4000630460915103709152038091530390910B
:101B500054030E94AF0881E00E949D04182F62E0A8
:101B600081E00E94510480E00E94050A612F81E01B
:101B70000E94510481E001C080E06B960FB6F8949A
:101B8000DEBF0FBECDBFDF91CF911F91FF90EF90D1
:101B9000DF90CF90BF90AF909F908F90089582E09C
:101BA00084BD95E095BD9AE797BD80936E0008953A
:101BB0002FB7F894609144037091450380914603D8
:101BC000909147032FBF08951F920F920FB60F9267
:101BD00011248F939F93AF93BF938091440390916F
:101BE0004503A0914603B09147030796A11DB11D7F
:101BF0008093440390934503A0934603B093470317
:101C0000809148039DE6980F9D3718F49093480300
:101C100016C08051809348038091440390914503FE
:101C2000A0914603B09147030196A11DB11D809379
:101C3000440390934503A0934603B0934703BF9199
:101C4000AF919F918F910F900FBE0F901F9018959D
:101C50001092B90080EC8093B800089594EA9093B4
:101C6000BC009091BC0097FFFCCF9091B900987F89
:101C7000983021F0903111F081E008958093BB00FD
:101C800084E88093BC008091BC0087FFFCCF8091EA
:101C9000B900887F883111F0803471F780E00895B1
:101CA00024EA34E844E92093BC009091BC0097FFFB
:101CB000FCCF9091B900987F983011F0903199F74E
:101CC0008093BB003093BC009091BC0097FFFCCF89
:101CD0009091B900987F903211F0983539F4409383
:101CE000BC009091BC0094FDFCCFDDCF08950C9416
:101CF0002E0E84E98093BC008091BC0084FDFCCF53
:101D000008958093BB0084E88093BC008091BC0060
:101D100087FFFCCF9091B900987F81E0983209F459
:101D200080E0089584EC8093BC008091BC0087FF24
:101D3000FCCF8091BB00089584E88093BC00809123
:101D4000BC0087FFFCCF8091BB000895CF93DF9349
:101D5000D62FC42F805C0E94500E8D2F0E94810EC2
:101D60008C2F0E94810EDF91CF910C94790ECF932E
:101D7000DF930E94280E83E08A95F1F70000C9E402
:101D8000D3E018828FEF89838A831B821C8249816A
:101D9000888160E00E94A60E4A81888161E0DF911F
:101DA000CF910C94A60E823060F495E0899FF001EB
:101DB0001124E75BFC4F61834181808160E00C94DA
:101DC000A60E0895823060F495E0899FF0011124F9
:101DD000E75BFC4F62834281808161E00C94A60E38
:101DE0000895823018F5A82FB0E095E0899FF001A2
:101DF0001124E75BFC4F218181E090E001C0880F56
:101E00006A95EAF7411103C08095822301C0822BB5
:101E100095E09A9FF0019B9FF00D1124E75BFC4F2A
:101E200081834181808160E00C94A60E0895823008
:101E300018F5A82FB0E095E0899FF0011124E75B29
:101E4000FC4F228181E090E001C0880F6A95EAF79B
:101E5000411103C08095822301C0822B95E09A9F97
:101E6000F0019B9FF00D1124E75BFC4F82834281C0
:101E7000808161E00C94A60E0895823060F495E0B4
:101E8000899FF0011124E75BFC4F638343818081CC
:101E900062E10C94A60E0895823060F495E0899F6B
:101EA000F0011124E75BFC4F64834481808163E18E
:101EB0000C94A60E08951F93CF93DF93162FD42F63
:101EC000C52F805C0E94500E812F0E94810E8D2FA5
:101ED0000E94810E8C2F0E94810EDF91CF911F9165
:101EE0000C94790ECF93DF93C82FD62F80E48C0FFC
:101EF0000E94500E8D2F0E94810E81E48C0F0E9453
:101F0000770E0E949C0EC82F0E94790E8C2FDF91B5
:101F1000CF9108950F931F93CF93DF93823060F595
:101F2000142F062FC82FD0E095E0899FF0011124CF
:101F3000E75BFC4F808164E10E94720F21E030E09A
:101F400001C0220F0A95EAF7112319F020952823E2
:101F500001C0282B85E08C9FF0018D9FF00D11248E
:101F6000E75BFC4F23834381808162E1DF91CF9166
:101F70001F910F910C94A60EDF91CF911F910F919D
:101F800008950F931F93CF93DF93823060F5142F42
:101F9000062FC82FD0E095E0899FF0011124E75B60
:101FA000FC4F808165E10E94720F21E030E001C0AA
:101FB000220F0A95EAF7112319F02095282301C072
:101FC000282B85E08C9FF0018D9FF00D1124E75B9D
:101FD000FC4F24834481808163E1DF91CF911F9185
:101FE0000F910C94A60EDF91CF911F910F91089540
:101FF000CF93823098F4C62F95E0899FF001112489
:10200000E75BFC4F808162E10E94720F90E002C0AA
:1020100095958795CA95E2F7817001C080E0CF91D0
:102020000895CF93823098F4C62F95E0899FF001F0
:102030001124E75BFC4F808163E10E94720F90E006
:1020400002C095958795CA95E2F7817001C080E03E
:10205000CF910895823050F495E0899FF0011124CA
:10206000E75BFC4F808162E10C94720F80E0089581
:10207000823050F495E0899FF0011124E75BFC4F1A
:10208000808163E10C94720F80E00895FF920F93BA
:102090001F93CF93DF93823068F5122F042FF62E13
:1020A00095E0899FE0011124C75BDC4F88816AE0DD
:1020B0000E94720FE1E0F0E0BF0101C0660FFA94E8
:1020C000EAF78F7B862BBF0101C0660F0A95EAF7FE
:1020D0008B7F682B01C0EE0F1A95EAF76D7F462FB4
:1020E0004E2B88816AE0DF91CF911F910F91FF9075
:1020F0000C94A60EDF91CF911F910F91FF90089540
:10210000FF920F931F93CF93DF93823068F5122FC6
:10211000042FF62E95E0899FE0011124C75BDC4F68
:1021200088816BE00E94720FE1E0F0E0BF0101C026
:10213000660FFA94EAF78F7B862BBF0101C0660F0A
:102140000A95EAF78B7F682B01C0EE0F1A95EAF724
:102150006D7F462F4E2B88816BE0DF91CF911F91D1
:102160000F91FF900C94A60EDF91CF911F910F91CC
:10217000FF900895BF92CF92DF92EF92FF920F935C
:102180001F93CF93DF93823008F069C0D02EB22E18
:10219000142FD62FE82EF12C25E0829FF001112478
:1021A000E75BFC4F808168E00E94720F41E050E0E5
:1021B000FA0102C0EE0FFF1FDA95E2F7EF01CE2E13
:1021C000C094112319F04C2D482302C04E2F482BE8
:1021D00085E08E9D80018F9D100D1124075B1C4FA3
:1021E000F801808168E00E94A60EF801808166E017
:1021F0000E94720FBB2019F04C2D482302C04C2FB7
:10220000482B85E08E9D80018F9D100D1124075B6A
:102210001C4FF801808166E00E94A60EF8018081C3
:1022200064E00E94720FD11003C04C2D482302C0FD
:102230004C2F482B85E08E9DF0018F9DF00D1124D1
:10224000E75BFC4F808164E0DF91CF911F910F919C
:10225000FF90EF90DF90CF90BF900C94A60EDF918F
:10226000CF911F910F91FF90EF90DF90CF90BF9093
:102270000895BF92CF92DF92EF92FF920F931F9338
:10228000CF93DF93823008F069C0D02EB22E142F86
:10229000D62FE82EF12C25E0829FF0011124E75B78
:1022A000FC4F808169E00E94720F41E050E0FA012A
:1022B00002C0EE0FFF1FDA95E2F7EF01CE2EC094B9
:1022C000112319F04C2D482302C04E2F482B85E0D6
:1022D0008E9D80018F9D100D1124075B1C4FF8010E
:1022E000808169E00E94A60EF801808167E00E946B
:1022F000720FBB2019F04C2D482302C04C2F482BE5
:1023000085E08E9D80018F9D100D1124075B1C4F71
:10231000F801808167E00E94A60EF801808165E0E7
:102320000E94720FD11003C04C2D482302C04C2FC5
:10233000482B85E08E9DF0018F9DF00D1124E75B09
:10234000FC4F808165E0DF91CF911F910F91FF904D
:10235000EF90DF90CF90BF900C94A60EDF91CF91BD
:102360001F910F91FF90EF90DF90CF90BF90089555
:1023700088E090E00E94FE000E9498018091010197
:10238000886280930101809102018862809302013A
:102390006F9881B18F6081B90E94B4010E94B70E1D
:1023A0006FEF80E00E94D30E0E949F010E94AC015B
:1023B00081E00E94390A86E00E944E0510E0D2E5D5
:1023C000E12CF12C80E090E0679907C0019739F08B
:1023D00081E092E00E946F0102C0019799F72FEF10
:1023E00086E791E0215080409040E1F700C0000076
:1023F0008CE292E00E946F010E942704C82F082EF1
:10240000000C990B0E940614892B19F481E090E0CE
:10241000DBCFC53621F4EE24E394F12CF7CFC5349D
:10242000D9F40E946103809102018F7D80930201A3
:102430002FEF83ED90E3215080409040E1F700C002
:102440000000809102018062809302018BE092E0A3
:102450000E946F010E94B811DC17D1F0DC3419F42E
:10246000C43499F40EC0D43419F4C23571F409C0DF
:10247000D23519F4C53549F404C0D53531F4CC341E
:1024800021F4812F0E94180303C0812F0E94CF02E4
:10249000E114F10429F40E941002182FDC2FB6CFAA
:1024A00080910201877F809302012FEF83ED90E3FB
:1024B000215080409040E1F700C00000809102016F
:1024C000886080930201DC2FE12CF12C9FCFA1E2E8
:1024D0001A2EAA1BBB1BFD010DC0AA1FBB1FEE1F9E
:1024E000FF1FA217B307E407F50720F0A21BB30BE9
:1024F000E40BF50B661F771F881F991F1A9469F765
:1025000060957095809590959B01AC01BD01CF01C0
:1025100008950E949C12A59F900DB49F900DA49FBA
:10252000800D911D11240895B7FF0C9489120E940B
:102530008912821B930B0895A29FB001B39FC00123
:10254000A39F700D811D1124911DB29F700D811DDF
:102550001124911D08950E941C1308F481E0089530
:102560000E94481388F09F5798F0B92F9927B751C8
:10257000B0F0E1F0660F771F881F991F1AF0BA9527
:10258000C9F714C0B13091F00E946213B1E0089510
:102590000C946213672F782F8827B85F39F0B93F02
:1025A000CCF3869577956795B395D9F73EF49095DA
:1025B0008095709561957F4F8F4F9F4F0895E89458
:1025C00009C097FB3EF490958095709561957F4F7B
:1025D0008F4F9F4F9923A9F0F92F96E9BB27939529
:1025E000F695879577956795B795F111F8CFFAF439
:1025F000BB0F11F460FF1BC06F5F7F4F8F4F9F4F6A
:1026000016C0882311F096E911C0772321F09EE8C7
:10261000872F762F05C0662371F096E8862F70E02D
:1026200060E02AF09A95660F771F881FDAF7880F07
:102630009695879597F90895990F0008550FAA0B5D
:10264000E0E8FEEF16161706E807F907C0F01216C5
:102650001306E407F50798F0621B730B840B950BC8
:1026600039F40A2661F0232B242B252B21F408951D
:102670000A2609F4A140A6958FEF811D811D0895BA
:1026800057FD9058440F551F59F05F3F71F0479523
:10269000880F97FB991F61F09F3F79F08795089508
:1026A000121613061406551FF2CF4695F1DF08C027
:1026B000161617061806991FF1CF86957105610544
:1026C00008940895E894BB2766277727CB0197F9EC
:1026D00008950E941C1308F48FEF08950E9481133F
:1026E0000C94F2130E94E41338F00E94EB1320F0D4
:1026F000952311F00C94DB130C94E11311240C942A
:1027000063130E94401370F3959FC1F3950F50E03F
:10271000551F629FF001729FBB27F00DB11D639F93
:10272000AA27F00DB11DAA1F649F6627B00DA11D39
:10273000661F829F2227B00DA11D621F739FB00DDF
:10274000A11D621F839FA00D611D221F749F33274F
:10275000A00D611D231F849F600D211D822F762FE8
:102760006A2F11249F5750409AF0F1F088234AF0C5
:10277000EE0FFF1FBB1F661F771F881F9150504031
:10278000A9F79E3F510580F00C94DB130C94631362
:102790005F3FE4F3983ED4F3869577956795B795B8
:1027A000F795E7959F5FC1F7FE2B880F911D9695D2
:1027B000879597F9089597F99F6780E870E060E042
:1027C00008959FEF80EC089500240A9416161706CA
:1027D00018060906089500240A9412161306140612
:1027E00005060895092E0394000C11F4882352F075
:1027F000BB0F40F4BF2B11F460FF04C06F5F7F4F2D
:102800008F4F9F4F089585FD0C940E148062911197
:102810000C940E1481568A51D8F708959927882769
:062820000895F894FFCFBB
:10282600524073746172746564400040484120727E
:102836006561636865642C205461736B2061636312
:102846006F6D706C6973686564214000726571759F
:0A2856006573745F64617461000033
:00000001FF
